{
  "address": "0xA91171BeddE1B2009DE476C1db10E0D1633278c3",
  "abi": [
    {
      "inputs": [
        {
          "internalType": "uint256",
          "name": "_lockTime",
          "type": "uint256"
        },
        {
          "internalType": "address",
          "name": "dataFeedAddr",
          "type": "address"
        }
      ],
      "stateMutability": "nonpayable",
      "type": "constructor"
    },
    {
      "inputs": [],
      "name": "dataFeed",
      "outputs": [
        {
          "internalType": "contract AggregatorV3Interface",
          "name": "",
          "type": "address"
        }
      ],
      "stateMutability": "view",
      "type": "function"
    },
    {
      "inputs": [],
      "name": "fund",
      "outputs": [],
      "stateMutability": "payable",
      "type": "function"
    },
    {
      "inputs": [
        {
          "internalType": "address",
          "name": "",
          "type": "address"
        }
      ],
      "name": "fundersToAmount",
      "outputs": [
        {
          "internalType": "uint256",
          "name": "",
          "type": "uint256"
        }
      ],
      "stateMutability": "view",
      "type": "function"
    },
    {
      "inputs": [],
      "name": "getChainlinkDataFeedLatestAnswer",
      "outputs": [
        {
          "internalType": "int256",
          "name": "",
          "type": "int256"
        }
      ],
      "stateMutability": "view",
      "type": "function"
    },
    {
      "inputs": [],
      "name": "getFund",
      "outputs": [],
      "stateMutability": "nonpayable",
      "type": "function"
    },
    {
      "inputs": [],
      "name": "getFundSuccess",
      "outputs": [
        {
          "internalType": "bool",
          "name": "",
          "type": "bool"
        }
      ],
      "stateMutability": "view",
      "type": "function"
    },
    {
      "inputs": [],
      "name": "owner",
      "outputs": [
        {
          "internalType": "address",
          "name": "",
          "type": "address"
        }
      ],
      "stateMutability": "view",
      "type": "function"
    },
    {
      "inputs": [],
      "name": "refund",
      "outputs": [],
      "stateMutability": "nonpayable",
      "type": "function"
    },
    {
      "inputs": [
        {
          "internalType": "address",
          "name": "_erc20Addr",
          "type": "address"
        }
      ],
      "name": "setErcc20Addr",
      "outputs": [],
      "stateMutability": "nonpayable",
      "type": "function"
    },
    {
      "inputs": [
        {
          "internalType": "address",
          "name": "funder",
          "type": "address"
        },
        {
          "internalType": "uint256",
          "name": "amountToUpdate",
          "type": "uint256"
        }
      ],
      "name": "setFunderToAmount",
      "outputs": [],
      "stateMutability": "nonpayable",
      "type": "function"
    },
    {
      "inputs": [
        {
          "internalType": "address",
          "name": "newOwner",
          "type": "address"
        }
      ],
      "name": "transferOwnership",
      "outputs": [],
      "stateMutability": "nonpayable",
      "type": "function"
    }
  ],
  "transactionHash": "0x3f1ee246de31c976d9a955cb0fe13f6adcc3474196a4158c931532ff11c4ea45",
  "args": [
    180,
    "0x694AA1769357215DE4FAC081bf1f309aDC325306"
  ],
  "numDeployments": 1,
  "solcInputHash": "825d3dd32b7dd0050f4dd8e138f1ad9a",
  "bytecode": "0x60806040526000600560146101000a81548160ff02191690831515021790555034801561002b57600080fd5b50604051611640380380611640833981810160405281019061004d919061017c565b806000806101000a81548173ffffffffffffffffffffffffffffffffffffffff021916908373ffffffffffffffffffffffffffffffffffffffff16021790555033600260006101000a81548173ffffffffffffffffffffffffffffffffffffffff021916908373ffffffffffffffffffffffffffffffffffffffff160217905550426003819055508160048190555050506101bc565b600080fd5b6000819050919050565b6100fb816100e8565b811461010657600080fd5b50565b600081519050610118816100f2565b92915050565b600073ffffffffffffffffffffffffffffffffffffffff82169050919050565b60006101498261011e565b9050919050565b6101598161013e565b811461016457600080fd5b50565b60008151905061017681610150565b92915050565b60008060408385031215610193576101926100e3565b5b60006101a185828601610109565b92505060206101b285828601610167565b9150509250929050565b611475806101cb6000396000f3fe60806040526004361061009c5760003560e01c8063b60d428811610064578063b60d428814610162578063bea4dfb51461016c578063d39cf00614610197578063da4658e0146101c0578063dbae9688146101eb578063f2fde38b146102145761009c565b8063590e1ae3146100a15780638da5cb5b146100b85780638edd6eb6146100e35780639e42ff90146100fa5780639f883a0514610125575b600080fd5b3480156100ad57600080fd5b506100b661023d565b005b3480156100c457600080fd5b506100cd610499565b6040516100da9190610bd0565b60405180910390f35b3480156100ef57600080fd5b506100f86104bf565b005b34801561010657600080fd5b5061010f610706565b60405161011c9190610c4a565b60405180910390f35b34801561013157600080fd5b5061014c60048036038101906101479190610c96565b61072a565b6040516101599190610cdc565b60405180910390f35b61016a610742565b005b34801561017857600080fd5b5061018161082d565b60405161018e9190610d10565b60405180910390f35b3480156101a357600080fd5b506101be60048036038101906101b99190610d57565b6108cc565b005b3480156101cc57600080fd5b506101d56109a4565b6040516101e29190610db2565b60405180910390f35b3480156101f757600080fd5b50610212600480360381019061020d9190610c96565b6109b7565b005b34801561022057600080fd5b5061023b60048036038101906102369190610c96565b610a8b565b005b60045460035461024d9190610dfc565b42101561028f576040517f08c379a000000000000000000000000000000000000000000000000000000000815260040161028690610e8d565b60405180910390fd5b683635c9adc5dea000006102a247610b5f565b106102e2576040517f08c379a00000000000000000000000000000000000000000000000000000000081526004016102d990610ef9565b60405180910390fd5b6000600160003373ffffffffffffffffffffffffffffffffffffffff1673ffffffffffffffffffffffffffffffffffffffff1681526020019081526020016000205403610364576040517f08c379a000000000000000000000000000000000000000000000000000000000815260040161035b90610f65565b60405180910390fd5b60003373ffffffffffffffffffffffffffffffffffffffff16600160003373ffffffffffffffffffffffffffffffffffffffff1673ffffffffffffffffffffffffffffffffffffffff168152602001908152602001600020546040516103c990610fb6565b60006040518083038185875af1925050503d8060008114610406576040519150601f19603f3d011682016040523d82523d6000602084013e61040b565b606091505b50508091505080610451576040517f08c379a000000000000000000000000000000000000000000000000000000000815260040161044890611017565b60405180910390fd5b6000600160003373ffffffffffffffffffffffffffffffffffffffff1673ffffffffffffffffffffffffffffffffffffffff1681526020019081526020016000208190555050565b600260009054906101000a900473ffffffffffffffffffffffffffffffffffffffff1681565b600260009054906101000a900473ffffffffffffffffffffffffffffffffffffffff1673ffffffffffffffffffffffffffffffffffffffff163373ffffffffffffffffffffffffffffffffffffffff161461054f576040517f08c379a0000000000000000000000000000000000000000000000000000000008152600401610546906110a9565b60405180910390fd5b683635c9adc5dea0000061056247610b5f565b10156105a3576040517f08c379a000000000000000000000000000000000000000000000000000000000815260040161059a90611115565b60405180910390fd5b6004546003546105b39190610dfc565b4210156105f5576040517f08c379a00000000000000000000000000000000000000000000000000000000081526004016105ec90610e8d565b60405180910390fd5b60003373ffffffffffffffffffffffffffffffffffffffff164760405161061b90610fb6565b60006040518083038185875af1925050503d8060008114610658576040519150601f19603f3d011682016040523d82523d6000602084013e61065d565b606091505b505080915050806106a3576040517f08c379a000000000000000000000000000000000000000000000000000000000815260040161069a90611017565b60405180910390fd5b6000600160003373ffffffffffffffffffffffffffffffffffffffff1673ffffffffffffffffffffffffffffffffffffffff168152602001908152602001600020819055506001600560146101000a81548160ff02191690831515021790555050565b60008054906101000a900473ffffffffffffffffffffffffffffffffffffffff1681565b60016020528060005260406000206000915090505481565b68056bc75e2d6310000061075534610b5f565b1015610796576040517f08c379a000000000000000000000000000000000000000000000000000000000815260040161078d90611181565b60405180910390fd5b6004546003546107a69190610dfc565b42106107e7576040517f08c379a00000000000000000000000000000000000000000000000000000000081526004016107de906111ed565b60405180910390fd5b34600160003373ffffffffffffffffffffffffffffffffffffffff1673ffffffffffffffffffffffffffffffffffffffff16815260200190815260200160002081905550565b60008060008054906101000a900473ffffffffffffffffffffffffffffffffffffffff1673ffffffffffffffffffffffffffffffffffffffff1663feaf968c6040518163ffffffff1660e01b815260040160a060405180830381865afa15801561089b573d6000803e3d6000fd5b505050506040513d601f19601f820116820180604052508101906108bf9190611290565b5050509150508091505090565b600560009054906101000a900473ffffffffffffffffffffffffffffffffffffffff1673ffffffffffffffffffffffffffffffffffffffff163373ffffffffffffffffffffffffffffffffffffffff161461095c576040517f08c379a00000000000000000000000000000000000000000000000000000000081526004016109539061137d565b60405180910390fd5b80600160008473ffffffffffffffffffffffffffffffffffffffff1673ffffffffffffffffffffffffffffffffffffffff168152602001908152602001600020819055505050565b600560149054906101000a900460ff1681565b600260009054906101000a900473ffffffffffffffffffffffffffffffffffffffff1673ffffffffffffffffffffffffffffffffffffffff163373ffffffffffffffffffffffffffffffffffffffff1614610a47576040517f08c379a0000000000000000000000000000000000000000000000000000000008152600401610a3e906110a9565b60405180910390fd5b80600560006101000a81548173ffffffffffffffffffffffffffffffffffffffff021916908373ffffffffffffffffffffffffffffffffffffffff16021790555050565b600260009054906101000a900473ffffffffffffffffffffffffffffffffffffffff1673ffffffffffffffffffffffffffffffffffffffff163373ffffffffffffffffffffffffffffffffffffffff1614610b1b576040517f08c379a0000000000000000000000000000000000000000000000000000000008152600401610b12906110a9565b60405180910390fd5b80600260006101000a81548173ffffffffffffffffffffffffffffffffffffffff021916908373ffffffffffffffffffffffffffffffffffffffff16021790555050565b600080610b6a61082d565b90506305f5e1008184610b7d919061139d565b610b87919061140e565b915050919050565b600073ffffffffffffffffffffffffffffffffffffffff82169050919050565b6000610bba82610b8f565b9050919050565b610bca81610baf565b82525050565b6000602082019050610be56000830184610bc1565b92915050565b6000819050919050565b6000610c10610c0b610c0684610b8f565b610beb565b610b8f565b9050919050565b6000610c2282610bf5565b9050919050565b6000610c3482610c17565b9050919050565b610c4481610c29565b82525050565b6000602082019050610c5f6000830184610c3b565b92915050565b600080fd5b610c7381610baf565b8114610c7e57600080fd5b50565b600081359050610c9081610c6a565b92915050565b600060208284031215610cac57610cab610c65565b5b6000610cba84828501610c81565b91505092915050565b6000819050919050565b610cd681610cc3565b82525050565b6000602082019050610cf16000830184610ccd565b92915050565b6000819050919050565b610d0a81610cf7565b82525050565b6000602082019050610d256000830184610d01565b92915050565b610d3481610cc3565b8114610d3f57600080fd5b50565b600081359050610d5181610d2b565b92915050565b60008060408385031215610d6e57610d6d610c65565b5b6000610d7c85828601610c81565b9250506020610d8d85828601610d42565b9150509250929050565b60008115159050919050565b610dac81610d97565b82525050565b6000602082019050610dc76000830184610da3565b92915050565b7f4e487b7100000000000000000000000000000000000000000000000000000000600052601160045260246000fd5b6000610e0782610cc3565b9150610e1283610cc3565b9250828201905080821115610e2a57610e29610dcd565b5b92915050565b600082825260208201905092915050565b7f57696e646f77206973206e6f7420636c6f736564000000000000000000000000600082015250565b6000610e77601483610e30565b9150610e8282610e41565b602082019050919050565b60006020820190508181036000830152610ea681610e6a565b9050919050565b7f5461726765742069732072656163686564000000000000000000000000000000600082015250565b6000610ee3601183610e30565b9150610eee82610ead565b602082019050919050565b60006020820190508181036000830152610f1281610ed6565b9050919050565b7f7468657265206973206e6f2066756e6420666f7220796f750000000000000000600082015250565b6000610f4f601883610e30565b9150610f5a82610f19565b602082019050919050565b60006020820190508181036000830152610f7e81610f42565b9050919050565b600081905092915050565b50565b6000610fa0600083610f85565b9150610fab82610f90565b600082019050919050565b6000610fc182610f93565b9150819050919050565b7f7478206661696c65640000000000000000000000000000000000000000000000600082015250565b6000611001600983610e30565b915061100c82610fcb565b602082019050919050565b6000602082019050818103600083015261103081610ff4565b9050919050565b7f746869732066756e6374696f6e2063616e206f6e6c792062652063616c6c656460008201527f206279206f776e65720000000000000000000000000000000000000000000000602082015250565b6000611093602983610e30565b915061109e82611037565b604082019050919050565b600060208201905081810360008301526110c281611086565b9050919050565b7f546172676574206973206e6f7420726561636865640000000000000000000000600082015250565b60006110ff601583610e30565b915061110a826110c9565b602082019050919050565b6000602082019050818103600083015261112e816110f2565b9050919050565b7f53656e64206d6f72652045544800000000000000000000000000000000000000600082015250565b600061116b600d83610e30565b915061117682611135565b602082019050919050565b6000602082019050818103600083015261119a8161115e565b9050919050565b7f57696e646f7720697320636c6f73656400000000000000000000000000000000600082015250565b60006111d7601083610e30565b91506111e2826111a1565b602082019050919050565b60006020820190508181036000830152611206816111ca565b9050919050565b600069ffffffffffffffffffff82169050919050565b61122c8161120d565b811461123757600080fd5b50565b60008151905061124981611223565b92915050565b61125881610cf7565b811461126357600080fd5b50565b6000815190506112758161124f565b92915050565b60008151905061128a81610d2b565b92915050565b600080600080600060a086880312156112ac576112ab610c65565b5b60006112ba8882890161123a565b95505060206112cb88828901611266565b94505060406112dc8882890161127b565b93505060606112ed8882890161127b565b92505060806112fe8882890161123a565b9150509295509295909350565b7f596f7520646f206e6f742068617665207065726d697373696f6e20746f20636160008201527f6c6c20746869732066756e6374696f6e00000000000000000000000000000000602082015250565b6000611367603083610e30565b91506113728261130b565b604082019050919050565b600060208201905081810360008301526113968161135a565b9050919050565b60006113a882610cc3565b91506113b383610cc3565b92508282026113c181610cc3565b915082820484148315176113d8576113d7610dcd565b5b5092915050565b7f4e487b7100000000000000000000000000000000000000000000000000000000600052601260045260246000fd5b600061141982610cc3565b915061142483610cc3565b925082611434576114336113df565b5b82820490509291505056fea2646970667358221220b3d1c5d5f6dee9d43d5fb81bf75f9d3c49b42bf7805a7c60364ed4d09147bd8064736f6c634300081c0033",
  "devdoc": {
    "kind": "dev",
    "methods": {},
    "version": 1
  },
  "userdoc": {
    "kind": "user",
    "methods": {
      "getChainlinkDataFeedLatestAnswer()": {
        "notice": "Returns the latest answer."
      }
    },
    "version": 1
  },
  "storageLayout": {
    "storage": [
      {
        "astId": 52,
        "contract": "contracts/FundMe.sol:FundMe",
        "label": "dataFeed",
        "offset": 0,
        "slot": "0",
        "type": "t_contract(AggregatorV3Interface)45"
      },
      {
        "astId": 56,
        "contract": "contracts/FundMe.sol:FundMe",
        "label": "fundersToAmount",
        "offset": 0,
        "slot": "1",
        "type": "t_mapping(t_address,t_uint256)"
      },
      {
        "astId": 72,
        "contract": "contracts/FundMe.sol:FundMe",
        "label": "owner",
        "offset": 0,
        "slot": "2",
        "type": "t_address"
      },
      {
        "astId": 74,
        "contract": "contracts/FundMe.sol:FundMe",
        "label": "deploymentTimestamp",
        "offset": 0,
        "slot": "3",
        "type": "t_uint256"
      },
      {
        "astId": 76,
        "contract": "contracts/FundMe.sol:FundMe",
        "label": "lockTime",
        "offset": 0,
        "slot": "4",
        "type": "t_uint256"
      },
      {
        "astId": 78,
        "contract": "contracts/FundMe.sol:FundMe",
        "label": "erc20Addr",
        "offset": 0,
        "slot": "5",
        "type": "t_address"
      },
      {
        "astId": 81,
        "contract": "contracts/FundMe.sol:FundMe",
        "label": "getFundSuccess",
        "offset": 20,
        "slot": "5",
        "type": "t_bool"
      }
    ],
    "types": {
      "t_address": {
        "encoding": "inplace",
        "label": "address",
        "numberOfBytes": "20"
      },
      "t_bool": {
        "encoding": "inplace",
        "label": "bool",
        "numberOfBytes": "1"
      },
      "t_contract(AggregatorV3Interface)45": {
        "encoding": "inplace",
        "label": "contract AggregatorV3Interface",
        "numberOfBytes": "20"
      },
      "t_mapping(t_address,t_uint256)": {
        "encoding": "mapping",
        "key": "t_address",
        "label": "mapping(address => uint256)",
        "numberOfBytes": "32",
        "value": "t_uint256"
      },
      "t_uint256": {
        "encoding": "inplace",
        "label": "uint256",
        "numberOfBytes": "32"
      }
    }
  }
}